:020000040800F2
:100000005804002001010008DD0300080D0300086A
:10001000D90300086D010008E90F00080000000086
:10002000000000000000000000000000150C0008A7
:100030007101000800000000D5070008950C0008B9
:100040001701000817010008170100081701000830
:100050001701000817010008170100081701000820
:100060001701000817010008170100081701000810
:100070001701000817010008170100081701000800
:1000800017010008170100081701000817010008F0
:1000900017010008170100081701000817010008E0
:1000A00017010008170100081701000817010008D0
:1000B000990C000817010008170100081701000833
:1000C00017010008170100081701000817010008B0
:1000D00017010008170100081701000817010008A0
:1000E000170100081701000817010008DFF80CD0FD
:1000F00000F02AF8004800471912000858040020B0
:1001000005480047FEE7FEE7FEE7FEE7FEE7FEE7FD
:10011000FEE7FEE7FEE7FEE7ED00000830B50B4620
:10012000014600202022012409E021FA02F59D4227
:1001300005D303FA02F5491B04FA02F52844151EFB
:10014000A2F10102F1DC30BD064C074D06E0E0688B
:1001500040F0010394E8070098471034AC42F6D30E
:10016000FFF7C8FFD8130008F813000800BFFEE728
:1001700070472DE9F04102460025002600200023AB
:100180000024002791F803C00CF00F0591F803C07C
:100190000CF0100CBCF1000F03D091F802C04CEA37
:1001A000050591F800C0BCF1000F31D014680020A3
:1001B0002BE04FF0010C0CFA00F3B1F800C00CEA90
:1001C00003069E4220D183004FF00F0C0CFA03F778
:1001D000BC4305FA03FC4CEA040491F803C0BCF1EB
:1001E000280F06D14FF0010C0CFA00FCC2F814C025
:1001F0000AE091F803C0BCF1480F05D14FF0010CA3
:100200000CFA00FCC2F810C0401C0828D1D31460BE
:10021000B1F800C0BCF1FF0F34DD546800202EE0BF
:1002200000F1080C4FF0010808FA0CF3B1F800C017
:100230000CEA03069E4221D183004FF00F0C0CFA0A
:1002400003F7BC4305FA03FC4CEA040491F803C02D
:10025000BCF1280F05D100F1080C08FA0CF8C2F81F
:10026000148091F803C0BCF1480F07D100F1080CCD
:100270004FF0010808FA0CF8C2F81080401C08285A
:10028000CED35460BDE8F081416170470161704791
:1002900070B5044600F0C0FA4FF4803000F080FBE7
:1002A00000F0DCFB0546012D2DD11748006840F019
:1002B0001000154908600846006820F00300086037
:1002C0000846006840F002000860002000F05CFB77
:1002D000A80200F08BFB002000F094FB21462804CC
:1002E00000F0A2FB012000F099FB00BF392000F0D4
:1002F00025FB0028FAD0022000F0A4FB00BF00F08C
:100300003BFB0828FBD170BD0020024000BFFEE788
:1003100070B505460C4645F2555000F02BF82846BE
:1003200000F01CF8204600F01FF800F00FF800F075
:1003300001F870BD4CF6CC400149086070470000E0
:100340000030004010B500F001F810BD4AF6AA20B8
:1003500001490860704700000030004001494860D2
:10036000704700000030004001498860704700007D
:100370000030004001490860704700000030004034
:1003800008B50121082000F037FA2020ADF8000060
:1003900048208DF8030069460148FFF7EAFE08BDD2
:1003A000000C014008B50121082000F025FA40208A
:1003B000ADF8000010208DF8030003208DF8020036
:1003C00069460448FFF7D5FE40210248FFF75CFF6D
:1003D00008BD0000000C014000BFFEE770470000B0
:1003E0001CB511A103C9CDE90001102000F0C6FB26
:1003F00005226946302000F0AFF80522694610203A
:1004000000F05CF8002406E01DF80400A52800D0E8
:1004100003E0601CC4B2052CF6DB00BF052C01D044
:1004200001201CBD0020FCE7A5A5A5A5A500000096
:1004300010B500F0C7F800F0FBF800200349086091
:1004400001200349C1F8B00110BD0000A001214204
:100450000080214210B50020154908600522154989
:100460002A2000F079F80121212000F093F80121E1
:10047000222000F08FF82821252000F08BF8202181
:10048000312000F087F80F21262000F083F80F219B
:10049000202000F07FF8FF21272000F07BF80120CA
:1004A0000549C1F8A001822000F088FE10BD0000BF
:1004B000A0012142D1130008000021422DE9F041A2
:1004C00007460D46164600200A490860384600F0E7
:1004D0002BFB8046002405E0FF2000F025FB28557B
:1004E000601CC4B2B442F7DB0120024908604046F8
:1004F000BDE8F081B081214270B504460020074973
:100500000860204600F010FBFF2000F00DFB0546C0
:1005100001200349C1F8B001284670BDB0812142D5
:100520000080214270B504460720FFF7E5FF05462D
:100530002946272000F02EF805F0400050B1202277
:1005400021466120FFF7BAFFFF21E22000F022F8E8
:10055000002070BD0120FCE72DE9F04107460C4664
:10056000154600200A490860384600F0DDFA80464A
:10057000002605E014F8010B00F0D6FA701CC6B294
:10058000AE42F7DB0120024908604046BDE8F08139
:10059000B081214270B505460C460020074908602D
:1005A000284600F0C1FA0646204600F0BDFA0120B8
:1005B0000349C1F8B001304670BD0000B08121424E
:1005C0000080214208B501210C2000F015F910200F
:1005D0008DF8030003208DF802004FF48850ADF829
:1005E000000069461048FFF7C4FD69460F48FFF751
:1005F000C0FD4FF40070ADF8000004208DF803003A
:1006000069460948FFF7B5FD4FF400710648FFF74A
:100610003DFE4FF480710448FFF736FE4FF48051E1
:100620000248FFF731FE08BD00080140000C014000
:1006300000B585B000F02EFA0021144800F0B2FA9F
:100640000020ADF800004FF48270ADF802000020E9
:10065000ADF80400ADF80600ADF808004FF40070E6
:10066000ADF80A001020ADF80C000020ADF80E0027
:100670000720ADF810006946044800F0ADFA0121EA
:10068000024800F08FFA05B000BD000000380040BD
:1006900008B526208DF800000F208DF801000120FC
:1006A0008DF80300684600F001F808BD70B5002120
:1006B00000230F22C47804B3154C246804F4E064CA
:1006C000C4F5E064210AC1F10403CA40447804FA85
:1006D00003F184781440214309010E4C0678A1559A
:1006E000047804F01F050124AC4005786D11AD00BD
:1006F00005F1E025C5F8004109E0047804F01F0584
:100700000124AC40044D0678761145F8264070BDB2
:100710000CED00E000E400E080E100E0024901436C
:10072000024A1160704700000000FA050CED00E07D
:1007300008B50121042000F05FF84020ADF800006A
:1007400010208DF8030003208DF80200694602484E
:10075000FFF70FFD08BD00000008014010B5FFF7CE
:10076000E7FF00F001F810BD1FB50121084600F0B9
:1007700033F84FF4FA70ADF808004720ADF80400E4
:100780000020ADF80A00ADF8060001A94FF0804046
:1007900000F0E4FA01221146900700F0D5FA00219A
:1007A0004FF0804000F0A4FA1C208DF800000120DA
:1007B0008DF801008DF803006846FFF777FF0121EF
:1007C000880700F0A4FA4020014908601FBD00001E
:1007D000100801407047000029B1064AD26902435F
:1007E000044BDA6104E0034AD2698243014BDA61C7
:1007F000704700000010024029B1064A9269024386
:10080000044B9A6104E0034A92698243014B9A6166
:1008100070470000001002400F48006840F00100DF
:100820000D490860084640680C4908400A4948607C
:10083000084600680A4908400749086008460068F9
:1008400020F4802008600846406820F4FE004860DC
:100850004FF41F0088607047001002400000FFF84E
:10086000FFFFF6FE30B500210022002400232D4DAD
:100870006D6805F00C0121B1042905D0082923D1A8
:1008800005E0294D056022E0284D05601FE0254D5B
:100890006D6805F47012234D6D6805F480340225EF
:1008A00005EB92421CB9224D554305600BE01D4DEE
:1008B0006D6805F400351DB11B4D5543056002E020
:1008C0001A4D5543056002E0174D056000BF00BF9B
:1008D000144D6D6805F0F0010909164D6B5C056853
:1008E000DD4045600F4D6D6805F4E061090A114D6A
:1008F0006B5C4568DD4085600A4D6D6805F46051AC
:10090000C90A0C4D6B5C4568DD40C560054D6D68DE
:1009100005F44041890B084D6B5CC568B5FBF3F5E8
:10092000056130BD0010024000093D0000127A0050
:1009300080841E003C0000204C00002010B50146C1
:100940000022002300204A11012A02D1094C236809
:1009500006E0022A02D1074C236A01E0054C636AD3
:1009600001F01F02012494401C400CB1012000E062
:10097000002010BD001002400248406800F00C004A
:10098000704700000010024001460020034A5068F2
:1009900020F0F00008435060704700000010024053
:1009A0001149096821F480310F4A11601146096824
:1009B00021F480211160B0F5803F03D0B0F5802F85
:1009C0000ED106E00849096841F48031064A1160F9
:1009D00007E00549096841F4A021034A116000E0DD
:1009E00000BF00BF70470000001002400146002019
:1009F000034A506820F4E0600843506070470000EC
:100A00000010024001460020034A506820F4605064
:100A100040EAC1005060704700100240014908667A
:100A2000704700000000424202460020044B586814
:100A300020F47C1042EA01031843014B58607047D0
:100A40000010024001460020034A506820F00300D5
:100A500008435060704700000010024038B5002085
:100A600000900024002500BF3120FFF767FF0546F6
:100A70000098401C00900098B0F5A06F01D0002DA8
:100A8000F2D03120FFF75AFF08B1012400E0002422
:100A9000204638BD00B587B001210820FFF7ACFE25
:100AA00001218803FFF798FE4FF46040ADF818006D
:100AB00018208DF81B0003208DF81A0006A918488D
:100AC000FFF757FB4FF460411548FFF7DFFB0020AD
:100AD000ADF804004FF48270ADF806000020ADF8C8
:100AE00008000220ADF80A000120ADF80C00400219
:100AF000ADF80E003820ADF810000020ADF812005F
:100B00000720ADF8140001A9064800F065F801219E
:100B1000044800F047F8FF2000F006F807B000BDD9
:100B2000000C01400038004070B50546002405E087
:100B3000601CC4B2C82C01DD002070BD02210E482B
:100B400000F03CF80028F3D029460B4800F042F8AA
:100B5000002405E0601CC4B2C82C01DD0020ECE7D5
:100B60000121054800F02AF80028F3D0024800F0DF
:100B70002EF8C0B2E1E700000038004010B504468E
:100B8000074800884FF6C7710840054908800846A5
:100B90000088204308800121014800F003F810BDBF
:100BA0000038004021B1028842F04002028004E097
:100BB00002884FF6BF731A40028070470246002039
:100BC00013890B400BB1012000E000207047014663
:100BD000888970478181704710B50022028802F42D
:100BE00041520B884C8823438C882343CC88234371
:100BF0000C8923434C8923438C892343CC89234389
:100C00001A430280838B4FF2FF74234083830B8A45
:100C1000038210BD704710B54FF4E010FFF738FBAA
:100C20004FF44070FFF77AFD00F0F6F8FFF7BAFBDB
:100C3000FFF7A6FBFFF7FCFBFFF790FD10BD0000E0
:100C400030B50146B1F1807F01D3012030BD21F0E4
:100C50007F40401E4FF0E022506150170F220028C5
:100C600007DA13071D0E094B00F00F04241F1D5552
:100C700003E013071C0E064B1C5400BF00204FF06E
:100C8000E0229061072010610020DFE718ED00E00E
:100C900000E400E07047000010B50121880700F073
:100CA00042F8E8B10121880700F02EF80D480E49FE
:100CB000098830F81100401E4FF0804188850B48AC
:100CC000006880F040000949086007480088401C1F
:100CD00005490880084600880C2801DB00200880B0
:100CE00010BD000024000020220000200C0801405C
:100CF00021B1028842F08002028004E002884FF6AF
:100D00007F731A4002807047CA430282704721B144
:100D1000028842F00102028004E002884FF6FE736E
:100D20001A400280704730B502460020002300249C
:100D3000158A05EA0103958905EA010413B10CB18E
:100D4000012000E0002030BD1AB183890B4383816C
:100D500002E083898B438381704700000022028870
:100D60001D4B98420ED01D4B98420BD0B0F1804FD6
:100D700008D01B4B984205D01A4B984202D01A4B10
:100D8000984204D14FF68F731A404B881A43174B81
:100D9000984207D0164B984204D04FF6FF431A40B2
:100DA000CB881A4302808B8883850B8803850A4B86
:100DB00098420BD0094B984208D00E4B984205D070
:100DC0000D4B984202D00D4B984201D10B7A03860D
:100DD0000123838270470000002C01400034014051
:100DE0000004004000080040000C004000100040DB
:100DF0000014004000400140004401400048014010
:100E000021B1828942F40052828104E082894DF648
:100E1000FF731A408281704700B585B0012104201C
:100E2000FFF7EAFC01214804FFF7D6FC0420ADF8E7
:100E3000100018208DF8130003208DF8120004A96B
:100E40001648FFF796F90820ADF8100004208DF839
:100E5000130004A91148FFF78CF94FF4E13000901A
:100E60000020ADF80400ADF80600ADF80800ADF8BC
:100E70000C000C20ADF80A006946094800F044F85F
:100E8000FFF706FC012240F22551054800F017F853
:100E900001210348FFF7B4FF05B000BD0008014081
:100EA0000044004002460020B1F5007F00D100BFA1
:100EB00013880B400BB1012000E000207047F0B513
:100EC0000346002400260025002040F66A17B94298
:100ED00000D100BF1846C1F3421401F01F060127DC
:100EE00007FA06F5012C01D10C3004E0022C01D1E7
:100EF000103000E014301AB107682F43076002E099
:100F00000768AF430760F0BD2DE9F04786B005469E
:100F10000E460024A24600BFA1460027B08900B1BA
:100F200000BF2F462C8A4CF6FF700440F088044323
:100F30002C82AC894EF6F3100440B0883189084306
:100F4000718908430443AC81AC8A4FF6FF400440EA
:100F5000B0890443AC8201A8FFF784FC1F48874294
:100F600002D1DDF810A001E0DDF80CA0A88900F4A2
:100F7000004040B10AEBCA0000EB0A10316849009A
:100F8000B0FBF1F807E00AEBCA0000EB0A10316889
:100F90008900B0FBF1F86420B8FBF0F004012009EF
:100FA000642101FB1089A88900F4004040B132207F
:100FB00000EBC900B0FBF1F000F00700044308E0CB
:100FC000322000EB09106421B0FBF1F000F00F00BB
:100FD00004432C8106B0BDE8F087000000380140D2
:100FE000C1F308028280704700BFFEE70FB4054BD3
:100FF00010B503A9044A029800F018F810BC5DF877
:1010000014FB0000F51100085000002002E008C8A1
:10101000121F08C1002AFAD170477047002001E072
:1010200001C1121F002AFBD1704700002DE9FF4FBC
:1010300089B09B460446002506E025280BD05A4679
:101040000B999047641C6D1C20780028F5D10DB0D9
:101050002846BDE8F08F0027B8460122474900E046
:10106000074314F8013F203B02FA03F00842F7D18E
:1010700020782E2819D114F8010F47F004072A28E8
:101080000ED06FF02F022078A0F1300109290CD882
:1010900008EB880102EB410100EB0108641CF2E758
:1010A0000A98641C50F8048B0A9020780028CED04F
:1010B000642808D0692806D075281ED05A460B9996
:1010C00090476D1C58E00A994FF00A0901C90A912E
:1010D000002802DA40422D2102E0390504D52B21F7
:1010E0008DF82010012103E0F90704D02021F7E753
:1010F0008A4608AE0DE00021FAE70A994FF00A0986
:1011000001C90A91F7E74946FFF708F8303106F8B8
:10111000011D0028F7D1ADEB060000F1200978078A
:1011200001D44FF00108C84502DDA8EB090000E03A
:1011300000208046002706E008A85A46C05D0B99AB
:1011400090476D1C7F1C5745F6DB04E030205A4663
:101150000B9990476D1CB8F10001A8F10108F5DC6E
:1011600005E016F8010B5A460B9990476D1CB9F132
:101170000001A9F10109F4DC641C65E709280100FC
:1011800010B504460C48FFF75BFD002008E000BFE7
:101190004FF0E021096901F480310029F8D0401CAA
:1011A000A042F4D34FF0E020006920F004004FF09B
:1011B000E021086110BD00004019010010B504468F
:1011C0004820FFF73DFD002008E000BF4FF0E02180
:1011D000096901F480310029F8D0401CA042F4D301
:1011E0004FF0E020006920F004004FF0E02108619A
:1011F00010BD000070B504460D46E1B20548FFF78A
:10120000EFFE00BF80210348FFF74CFE0028F9D015
:10121000204670BD004400400EB5FFF7FCFC0EE018
:1012200052A0FFF7E3FE5848006808B9012000E02B
:101230000020554908604FF4FA70FFF7A1FFFFF74F
:10124000CFF80028ECD1FFF705F99D214020FFF7EA
:101250005FF889E0FFF776F84C48FFF763F900285C
:1012600056D100244FF47A704949088047484078A5
:101270004649097840EA0120A0F57A70444948803F
:101280004FF47A7088804148C0784049897840EAB4
:101290000120A0F57A703E49C8804FF47A70088129
:1012A0003A4840793949097940EA0120A0F57A7035
:1012B000374948814FF47A7088813448C07933497E
:1012C000897940EA0120A0F57A703149C8814FF44C
:1012D0007A70088240104882888241F29410C88255
:1012E0002948006808B9012000E00020264908606C
:1012F000002007E0264931F81010264A22F8101085
:10130000411CC8B20C28F5DB01202349087005E018
:10131000C82C03DB002400201F4908701E480078F9
:1013200050B9002006E04FF4FA611A4A22F8101072
:10133000411CC8B20C28F6DB601CC4B21648017808
:1013400016A0FFF753FE1348C08A1249C989114AF3
:101350005289CDE9002102900E48C3884288018855
:1013600012A0FFF743FE00BF74E700000D0A202023
:1013700020206E726620646F6E7420776F726B210E
:10138000202020200D0A000098812142000000202A
:101390000800002024000020200000200D0A20204A
:1013A00020202564202020200D0A00000D0A202086
:1013B000202564202025642020202564202020254D
:1013C0006420202025642020202564003443101050
:1013D0000134431010010000F81300080000002041
:1013E000540000000C1000084C14000854000020A9
:1013F000040400001C1000080000000000000000B1
:10140000E803F401E803F401E803F401E803F4015C
:10141000E803F401F401941100000000E803F40172
:10142000E803F401E803F401E803F401E803F4013C
:10143000F4019411000000000102030401020304FE
:0C1440000607080902040608000000006E
:04000005080000ED02
:00000001FF
